{
  "_format": "hh-sol-artifact-1",
  "contractName": "CounterFoundry",
  "sourceName": "contracts/CounterFoundry.sol",
  "abi": [
    {
      "inputs": [],
      "name": "count",
      "outputs": [
        {
          "internalType": "uint256",
          "name": "",
          "type": "uint256"
        }
      ],
      "stateMutability": "view",
      "type": "function"
    },
    {
      "inputs": [],
      "name": "decrementCount",
      "outputs": [],
      "stateMutability": "nonpayable",
      "type": "function"
    },
    {
      "inputs": [],
      "name": "getCount",
      "outputs": [
        {
          "internalType": "uint256",
          "name": "",
          "type": "uint256"
        }
      ],
      "stateMutability": "view",
      "type": "function"
    },
    {
      "inputs": [],
      "name": "incrementCount",
      "outputs": [],
      "stateMutability": "nonpayable",
      "type": "function"
    },
    {
      "inputs": [],
      "name": "reset",
      "outputs": [],
      "stateMutability": "nonpayable",
      "type": "function"
    },
    {
      "inputs": [
        {
          "internalType": "uint256",
          "name": "_newCount",
          "type": "uint256"
        }
      ],
      "name": "setCount",
      "outputs": [],
      "stateMutability": "nonpayable",
      "type": "function"
    }
  ],
  "bytecode": "0x608060405234801561001057600080fd5b5061037b806100206000396000f3fe608060405234801561001057600080fd5b50600436106100625760003560e01c806306661abd14610067578063a87d942c14610085578063b7f90f12146100a3578063d14e62b8146100ad578063d826f88f146100c9578063e5071b8e146100d3575b600080fd5b61006f6100dd565b60405161007c9190610192565b60405180910390f35b61008d6100e3565b60405161009a9190610192565b60405180910390f35b6100ab6100ec565b005b6100c760048036038101906100c291906101de565b61014b565b005b6100d1610155565b005b6100db61015e565b005b60005481565b60008054905090565b6000805411610130576040517f08c379a00000000000000000000000000000000000000000000000000000000081526004016101279061028e565b60405180910390fd5b600160008082825461014291906102dd565b92505081905550565b8060008190555050565b60008081905550565b60016000808282546101709190610311565b92505081905550565b6000819050919050565b61018c81610179565b82525050565b60006020820190506101a76000830184610183565b92915050565b600080fd5b6101bb81610179565b81146101c657600080fd5b50565b6000813590506101d8816101b2565b92915050565b6000602082840312156101f4576101f36101ad565b5b6000610202848285016101c9565b91505092915050565b600082825260208201905092915050565b7f436f756e7465723a2063616e6e6f742064656372656d656e742076616c75652060008201527f62656c6f77207a65726f00000000000000000000000000000000000000000000602082015250565b6000610278602a8361020b565b91506102838261021c565b604082019050919050565b600060208201905081810360008301526102a78161026b565b9050919050565b7f4e487b7100000000000000000000000000000000000000000000000000000000600052601160045260246000fd5b60006102e882610179565b91506102f383610179565b925082820390508181111561030b5761030a6102ae565b5b92915050565b600061031c82610179565b915061032783610179565b925082820190508082111561033f5761033e6102ae565b5b9291505056fea2646970667358221220465da18c737d422bddc6e01558c6e983f0f8487ead3d9036c925c0f6446da25b64736f6c63430008170033",
  "linkReferences": {},
  "deployedLinkReferences": {}
}